:020000040000FA
:08000000803102288731FD2F39
:100EEE004F0196019701980199019A019B01080003
:100EFE00603051018D008F019101063093009001F9
:100F0E009201080087317727873187319327873100
:100F1E0087317F278731080040019C019B01980192
:100F2E0099019A010F309600FF309200FF30930026
:100F3E00DF309400FF309500FF307E01D900DF30A6
:100F4E00CE00FF30C3000730E400FF30B800DA01F6
:100F5E00E501C401B901CF01E601BA01C501D00115
:100F6E00DB01FF30BB00FF30C600FF30D100FF3089
:100F7E00DC000730E7000800873189278731C72F4B
:100F8E000030F3000030F2000030F1000030F000CD
:100F9E007308031DDD2F7208031DDD2F4030700214
:100FAE009C30713B031CDC2FDD2FDF2FF62FF62F2D
:100FBE000130F0070030F13D0030F23D0030F33DDE
:100FCE007308031DF52F7208031DF52F40307002B4
:100FDE009C30713B031CF42FF52FDF2FF62F4001B1
:100FEE0020309A06C72FC72F803102284001873143
:020FFE00C32FFF
:020000040001F9
:0A000E00EC3FFE3F9F3FFF1FFF3F46
:00000001FF
