:020000040000FA
:08000000803102288731FD2F39
:100C8C004E010F0E890C01394B2E08004F019601B5
:100C9C009701980199019A019B010800603051015C
:100CAC008D008F0191010630930090019201080094
:100CBC00083042019F0090309D0024309E0044304B
:100CCC009B009C010800F0006B2E4E010F1E6F2E36
:100CDC00702E6B2E712E700842019A00080086311E
:100CEC004C268631863193268631863154268631C0
:100CFC0086315E2686310800832E4E018F1E872E8C
:100D0C00882E832E42019D1C8C2E8D2E902E1D1212
:100D1C001D16902E1908922E080040019C019B0173
:100D2C00980199019A010F309600FF309200FF3024
:100D3C0093009F309400FF309500FF307E01D90066
:100D4C005F30CE00FF30C3000730E400FF30B80046
:100D5C00DA01E501C401B901CF01E601BA01C5010F
:100D6C00D001DB01FF30BB00FF30C600FF30D100EB
:100D7C00FF30DC000730E70055307D018F00AA30D2
:100D8C008F000F100F307E019E007D014B08C03983
:100D9C000F38CB0055308F00AA308F000F1408008D
:100DAC00F7011E307702031CDC2EDD2EDF2E1F2FE9
:100DBC001F2F7208F5007108F4007708740784007F
:100DCC0075080318750A850012002F3A031DEF2EC3
:100DDC00F02E052F7708013EF40000300318013087
:100DEC00F5007108740784007208753D85001200C7
:100DFC006E3A031D022F032F052F1F2F1F2F720872
:100E0C00F5007108F400770874078400750803185E
:100E1C00750A850000088631692686310130F40098
:100E2C007408F7071E307702031C1D2F1E2FDF2EB0
:100E3C001F2F7303031D232F242F2D2F0D308631CD
:100E4C00692686310A308631692686312D2F0800B5
:100E5C00F401F501F601F7013C2FE830F102033003
:100E6C00F23B0130F3007308F7073C2F033072029A
:100E7C00E830031971020318442F452F332F502FDC
:100E8C00502F6430F1020030F23B0130F300730854
:100E9C00F607502F003072026430031971020318E8
:100EAC00582F592F472F642F642F0A30F10200302E
:100EBC00F23B0130F3007308F507642F0030720227
:100ECC000A300319710203186C2F6D2F5B2F782FCA
:100EDC00782F0130F1020030F23B0130F30073083F
:100EEC00F407782F71087204031D7D2F7E2F6F2F4E
:100EFC007F2F7708303E8631692687317608303E61
:100F0C008631692687317508303E863169268731EE
:100F1C007408303E86316926873108008631752683
:100F2C008731982F0030FD000030FC000030FB00B2
:100F3C000030FA007D08031DAE2F7C08031DAE2F78
:100F4C0040307A029C307B3B031CAD2FAE2FB02F70
:100F5C00C72FC72F0130FA070030FB3D0030FC3D96
:100F6C000030FD3D7D08031DC62F7C08031DC62FD8
:100F7C0040307A029C307B3B031CC52FC62FB02F10
:100F8C00C72F400120309A060030F1008830F20063
:100F9C00F3018631D62687311F30F1000230F20082
:100FAC0087312E2787310730F1008830F200F301AA
:100FBC00F30A8631D6268731863146268731003AA8
:100FCC000319E92FEA2F982F863182268731F800F2
:100FDC007808F900790886316926873148308631DE
:100FEC0069268731982F982F982F8031022840013D
:100FFC008731942F523465346E34613468346E34D6
:08100C0020342F346E3400344F
:020000040001F9
:0A000E00EC3FFE3F9F3FFF1FFF3F46
:00000001FF
