:020000040000FA
:08000000803102288731FD2F39
:100E30004E010F0E890C01391D2F08004F0196013C
:100E40009701980199019A019B01080060305101B6
:100E50008D008F01910106309300900192010800EE
:100E6000083042019F0090309D0024309E004430A5
:100E70009B009C010800F0003D2F4E010F1E412FEA
:100E8000422F3D2F432F700842019A0008008731FE
:100E90001E2787318731652787318731262787319C
:100EA0008731302787310800552F4E018F1E592F6B
:100EB0005A2F552F42019D1C5E2F5F2F622F1D124E
:100EC0001D16622F1908642F080040019C019B0128
:100ED000980199019A010F309600FF309200FF307F
:100EE00093009F309400FF309500FF307E01D900C1
:100EF0005F30CE00FF30C3000730E400FF30B800A1
:100F0000DA01E501C401B901CF01E601BA01C50169
:100F1000D001DB01FF30BB00FF30C600FF30D10045
:100F2000FF30DC000730E70055307D018F00AA302C
:100F30008F000F100F307E019E007D014B08C039DD
:100F40000F38CB0055308F00AA308F000F140800E7
:100F5000873147278731AC2F0030F6000030F5008D
:100F60000030F4000030F3007608031DC22F75082E
:100F7000031DC22F403073029C30743B031CC12FF1
:100F8000C22FC42FDB2FDB2F0130F3070030F43DDD
:100F90000030F53D0030F63D7608031DDA2F750868
:100FA000031DDA2F403073029C30743B031CD92F91
:100FB000DA2FC42FDB2F400120309A0645308731CD
:100FC0003B278731873118278731003A0319E92FEA
:100FD000EA2FAC2F873154278731F1007108F200D6
:100FE000720887313B278731483087313B2787316B
:100FF000AC2FAC2FAC2F8031022840018731A82FB5
:020000040001F9
:0A000E00EC3FFE3F9F3FFF1FFF3F46
:00000001FF
