:020000040000FA
:08000000803102288731FD2F39
:10000A004F0196019701980199019A019B010800F5
:10001A00F800F401F5017008F200F3017208F60025
:10002A007308F7001828781C1B281C282028760833
:10003A00F4077708F53D0130F635F70D890B2128CD
:10004A000310F80C7808031D2B282C2818282D28B3
:10005A007508F1007408F0003228080040019C017C
:10006A009B01980199019A010F309600FF30920086
:10007A00FF30930097309400FE309500FE307E01E9
:10008A00D9000730CE00FF30C3000730E400FF304C
:10009A00B800DA01E501C401B901CF01E601BA01EC
:1000AA00C501D001DB01FF30BB00FF30C600FF30C5
:1000BA00D100FF30DC000730E70055307D018F00AA
:1000CA00AA308F000F100F307E019E007D014B0871
:1000DA00C0390F38CB001330C50015307E01A3009C
:1000EA001630A5000F30A60014307D01C600553029
:1000FA008F00AA308F000F140800F7011E30770214
:10010A00031C882889288B28CB28CB287208F5005D
:10011A007108F40077087407840075080318750AD3
:10012A00850012002F3A031D9B289C28B1287708C6
:10013A00013EF400003003180130F500710874071D
:10014A0084007208753D850012006E3A031DAE28C0
:10015A00AF28B128CB28CB287208F5007108F40023
:10016A0077087407840075080318750A8500000863
:10017A008F31C52780310130F4007408F7071E302B
:10018A007702031CC928CA288B28CB287303031DAE
:10019A00CF28D028D9280D308F31C52780310A3091
:1001AA008F31C5278031D9280800F401F501F601FD
:1001BA00F701E828E830F1020330F23B0130F3009E
:1001CA007308F707E82803307202E830031971024E
:1001DA000318F028F128DF28FC28FC286430F102F3
:1001EA000030F23B0130F3007308F607FC280030B8
:1001FA007202643003197102031804290529F328CD
:10020A00102910290A30F1020030F23B0130F300C4
:10021A007308F5071029003072020A3003197102B7
:10022A000318182919290729242924290130F10238
:10023A000030F23B0130F3007308F40724297108F7
:10024A007204031D29292A291B292B297708303EE4
:10025A008F31C52780317608303E8F31C5278031EE
:10026A007508303E8F31C52780317408303E8F3192
:10027A00C5278031080040011B1000308F31D1277B
:10028A0081314001B7003708BB0000308F31D127D8
:10029A0081314001B7003708BA001B143B08B70088
:1002AA00B8013708BC003808BD000530BC35BD0DA3
:1002BA00890B5B293A08B7000330B736890B6229E4
:1002CA003708B800B9013808BC043908BD043C082D
:1002DA00F0003D08F100F201F30100308231FF2203
:1002EA00813173084001C1007208C0007108BF0063
:1002FA007008BE004430A3007F30A200F030A10095
:10030A000030A0004108A7004008A6003F08A50049
:10031A003E08A40085319225813140012308C1009D
:10032A002208C0002108BF002008BE004530F300A3
:10033A007F30F200F030F1000030F0004108F700A1
:10034A004008F6003F08F5003E08F4008331B32365
:10035A00813173084001C1007208C0007108BF00F2
:10036A007008BE004108F3004008F2003F08F1009F
:10037A003E08F0008131C921813171084001B6007F
:10038A007008B500C82908007008F4007108F50063
:10039A007208F6007308F7000310760D770DF8005F
:1003AA007808FA007A08031DDB29DC29E6290030DF
:1003BA00F3000030F2000030F1000030F0005C2A57
:1003CA005C2A7008F4007108F5007208F6007308D8
:1003DA00F7001F30F736F60CF50CF40C890BEF29F1
:1003EA007408F8007808F900F217FF30F005FF30BA
:1003FA00F105FF30F2050030F3059630FA02FA1FD4
:10040A00072A082A2B2A7A08803A973E03180E2AC6
:10041A000F2A1A2A0030F3000030F2000030F100EF
:10042A000030F0005C2A5C2A1A2A0130F336F20CFA
:10043A00F10CF00C890B1B2A0130F4007408FA073E
:10044A00031D282A292A1A2A4C2A4C2A20307A02E1
:10045A00031C302A312A452A0030F3000030F2000A
:10046A000030F1000030F0005C2A5C2A452A013095
:10047A00F035F10DF20DF30D890B3D2A0130FA0228
:10048A007A08031D492A4A2A3C2A4C2A4C2A790806
:10049A000319502A512A5C2AF009F109F209F309D1
:1004AA00F00A0319F10A0319F20A0319F30A0800F8
:1004BA008F31DF2782318F31A0278231003040010E
:1004CA00C9000030C8000030C7000030C600490823
:1004DA00031D7A2A4808031D7A2A403046029C30B6
:1004EA00473B031C792A7A2A7C2A932A932A0130C9
:1004FA00C6070030C73D0030C83D0030C93D490835
:10050A00031D922A4808031D922A403046029C3055
:10051A00473B031C912A922A7C2A932A0030C9005D
:10052A000030C8000030C7000030C6004908031D6B
:10053A00A92A4808031DA92A403046029C30473B95
:10054A00031CA82AA92AAB2AC22AC22A0130C60732
:10055A000030C73D0030C83D0030C93D4908031D81
:10056A00C12A4808031DC12A403046029C30473B35
:10057A00031CC02AC12AAB2AC22A813140218231F6
:10058A0040013608C4003508C3000030F10090303D
:10059A00F200F30180318220823140014408F200E6
:1005AA004308F1008031DA2082310C30F1009030BA
:1005BA00F200F301F30A8031822082318F31A427BD
:1005CA008231003A0319EA2AEB2A632A8F31EF278C
:1005DA0082314001C2004208C50045088F31C52753
:1005EA00823148308F31C5278231632A632A632AD0
:1005FA0080310228F80078080319042B052B192BDF
:10060A00F31F082B092B192B7009FA007109FB003B
:10061A007209FC007309FD00FA0A0319FB0A03199F
:10062A00FC0A0319FD0A212B7308FD007208FC005D
:10063A007108FB007008FA007308720471047004F0
:10064A00031D282B292B332B0030F3000030F20036
:10065A000030F1000030F000B22BB22B9630F400DB
:10066A007408F900442B0130F4007408F9070130CA
:10067A00FD36FC0CFB0CFA0C890B3D2B442BFE308F
:10068A007D05031D492B4A2B382B5F2B5F2B01302D
:10069A00F4007408F9070130FA070030FB3D003016
:1006AA00FC3D0030FD3D0130FD36FC0CFB0CFA0C24
:1006BA00890B592BFF307D05031D642B652B4C2BB1
:1006CA00712B712B0130F9020130FA35FB0DFC0D4B
:1006DA00FD0D890B6A2B712BFC1B742B752B7C2B44
:1006EA000230790203187A2B7B2B672B7C2B791823
:1006FA007F2B802B882BFF30FA05FF30FB057F30DC
:10070A00FC05FF30FD050310F90C7908F400F5012A
:10071A00F601F7011830F435F50DF60DF70D890BD2
:10072A00902B7408FA047508FB047608FC04770811
:10073A00FD0478080319A22BA32BA92BF31FA62BC0
:10074A00A72BA92BFD17A92B7D08F3007C08F20023
:10075A007B08F1007A08F000B22B0800770880398C
:10076A00F80078084001A4007735F8007808AB0053
:10077A00F61FC02BC12BC32B2B14C32B2B08031919
:10078A00C72BC82BD92B2B0A031DCC2BCD2BD62B31
:10079A000030F7000030F6000030F5000030F400B9
:1007AA00D62BF617F701E22B0030F7000030F600DF
:1007BA000030F5000030F400E22B73088039F800AD
:1007CA007808A4067335F8007808AC00F21FEE2BFF
:1007DA00EF2BF12B2C14F12B2C080319F52BF62BEC
:1007EA00072C2C0A031DFA2BFB2B042C0030F300D8
:1007FA000030F2000030F1000030F000042CF21753
:10080A00F3010F2C0030F3000030F2000030F10049
:10081A000030F0007308720471047004031D162C72
:10082A00172C312C0030F7000030F6000030F500AC
:10083A000030F4008030F6047F30F7042408F80012
:10084A007808F7047708F3007608F2007508F100D3
:10085A007408F000912D912D2B08031D352C362C90
:10086A00482C0030F7000030F6000030F500003068
:10087A00F4007708F3007608F2007508F1007408AE
:10088A00F000912D912D2C08F800F901F809F909C9
:10089A00F80A0319F90A2B087807FA0079080318E5
:1008AA00790AFB007A087F3EA50000307B3DA6004E
:1008BA007708A3007608A2007508A1007408A000B2
:1008CA000030F7000030F6000030F5000030F40088
:1008DA000030AA000030A9000030A8000030A700AC
:1008EA00AC01B92C2C0803197B2C7C2C982C0130D8
:1008FA00A035A10DA20DA30D890B7D2C0130F43575
:10090A00F50DF60DF70D890B842CAA1F8D2C8E2C54
:10091A00902C7414902C0130A735A80DA90DAA0D9E
:10092A00890B912C982C73082302031DA62C72089C
:10093A002202031DA62C71082102031DA62C700891
:10094A002002031CA92CAA2CB42C2A177008A00276
:10095A007108A13B7208A23B7308A33BB42C013077
:10096A00F8007808AC07B92C1A302C02031CBE2CEC
:10097A00BF2C772CC02C230822042104200403193D
:10098A00C72CC82CE42C2714E42CE42C0130F435B1
:10099A00F50DF60DF70D890BCC2CAA1FD52CD62CEC
:1009AA00D82C7414D82C0130A735A80DA90DAA0D7E
:1009BA00890BD92CFF30A507FF30A63DE42CF61F82
:1009CA00E72CE82CCB2CE92CAC01AA1FED2CEE2C41
:1009DA000E2DFF302705F800FF302805F900FF30FB
:1009EA002905FA007F302A05FB007B087A0479047E
:1009FA0078040319012D022D052DAC01AC0A0E2D28
:100A0A00741C082D092D0E2DAC01AC0A0E2D0E2DCD
:100A1A000E2D2C080319122D132D3D2D0130F4072C
:100A2A000030F53D0030F63D0030F73D771C1E2DB5
:100A3A001F2D3D2D7408F8007508F9007608FA0094
:100A4A007708FB000130FC00FB37FA0CF90CF80CB4
:100A5A00FC0B292D7B08F7007A08F6007908F500C7
:100A6A007808F4000130A5070030A63D3D2D3D2D44
:100A7A002608803AF80080307802031D462DFF30A0
:100A8A002502031C492D4A2D572DFF304001A50090
:100A9A000030A6000030F7000030F6000030F50004
:100AAA000030F40040012608803AF80080307802CD
:100ABA00031D612D013025020318642D652D712D4A
:100ACA004001A501A6010030F7000030F600003011
:100ADA00F5000030F400A40140012508F800780868
:100AEA00AB002B1C792D7A2D7C2DF617802D7F30AB
:100AFA00F8007808F6052B36F8007808F70024087D
:100B0A00F8007808F7047708F3007608F200750809
:100B1A00F1007408F000912D080040012308803983
:100B2A00F9007908A8002335F9007908AE00A21F58
:100B3A009F2DA02DA22D2E14A22D2E080319A62D0D
:100B4A00A72DB72D2E0A031DAB2DAC2DB52D0030C8
:100B5A00A3000030A2000030A1000030A000B52D93
:100B6A00A217C02D0030A3000030A2000030A1005F
:100B7A000030A000C02D27088039F9007908A8069E
:100B8A002735F9007908AD00A61FCC2DCD2DCF2D24
:100B9A002D14CF2D2D080319D32DD42DE42D2D0A74
:100BAA00031DD82DD92DE22D0030A7000030A60054
:100BBA000030A5000030A400E22DA617ED2D00306C
:100BCA00A7000030A6000030A5000030A400ED2DDB
:100BDA002D080319F12DF22DF82D2E08031DF62DDF
:100BEA00F72D022EF82D0030A3000030A2000030AD
:100BFA00A1000030A000FC2FFC2F2008F900790882
:100C0A00F000260880310D20853171084001B400BA
:100C1A007008B3003308F900FA01FB01FC017C08F3
:100C2A00AC007B08AB007A08AA007908A90034084E
:100C3A00F900FA01FB01FC017C08B2007B08B10053
:100C4A007A08B0007908AF002108F9007908F000A5
:100C5A00250880310D20853171084001B4007008E3
:100C6A00B3003308F900FA01FB01FC017908A9076E
:100C7A007A08AA3D7B08AB3D7C08AC3D3408F900F4
:100C8A00FA01FB01FC017908AF077A08B03D7B083D
:100C9A00B13D7C08B23D2208F9007908F000240829
:100CAA0080310D20853171084001B4007008B3000D
:100CBA003308F900FA01FB01FC017908A9077A084F
:100CCA00AA3D7B08AB3D7C08AC3D3408F900FA012B
:100CDA00FB01FC017908AF077A08B03D7B08B13DFA
:100CEA007C08B23D0830A935AA0DAB0DAC0D890BB5
:100CFA00782E2108F9007908F000240880310D20A7
:100D0A00853171084001B4007008B3003308A9079F
:100D1A003408AA3D0030AB3DAC3D2008F900790803
:100D2A00F000250880310D20853171084001B4009A
:100D3A007008B3003308A9073408AA3D0030AB3D58
:100D4A00AC3D0830A935AA0DAB0DAC0D890BA72E09
:100D5A002008F9007908F000240880310D20853137
:100D6A0071084001B4007008B3003308A9073408B9
:100D7A00AA3D0030AB3DAC3D2108F9007908F000EE
:100D8A00260880310D20853171084001B4007008B1
:100D9A00B3003308AF073408B03D0030B13DB23D6F
:100DAA002208F9007908F000250880310D208531E4
:100DBA0071084001B4007008B3003308AF07340863
:100DCA00B03D0030B13DB23D2208F9007908F0008B
:100DDA00260880310D20853171084001B400700861
:100DEA00B3003308F9003408FA00FB01FC010830AB
:100DFA00F935FA0DFB0DFC0D890BFD2E7908AF07AD
:100E0A007A08B03D7B08B13D7C08B23D2908F9005B
:100E1A002A08FA002B08FB002C08FC001830FC36C4
:100E2A00FB0CFA0CF90C890B142F7908AF077A0816
:100E3A00B03D7B08B13D7C08B23D0830A935AA0D0A
:100E4A00AB0DAC0D890B232F2E082D07F900FA01E3
:100E5A00FA0D7908823EB300FF307A3DB4004E2F76
:100E6A000130AF35B00DB10DB20D890B362FAC1F65
:100E7A003F2F402F422F2F14422F0130A935AA0DA0
:100E8A00AB0DAC0D890B432FFF30B307FF30B43DD8
:100E9A004E2FB11F512F522F352F532FAD01AC1F9B
:100EAA00572F582F782FFF302905F900FF302A05D0
:100EBA00FA00FF302B05FB007F302C05FC007C0874
:100ECA007B047A04790403196B2F6C2F6F2FAD0101
:100EDA00AD0A782F2F1C722F732F782FAD01AD0A10
:100EEA00782F782F782F2D0803197C2F7D2FA72F85
:100EFA000130AF070030B03D0030B13D0030B23DA7
:100F0A00321C882F892FA72F2F08F9003008FA00E2
:100F1A003108FB003208FC000130FD00FC37FB0CF5
:100F2A00FA0CF90CFD0B932F7C08B2007B08B10078
:100F3A007A08B0007908AF000130B3070030B43D39
:100F4A00A72FA72F3408803AF90080307902031DB1
:100F5A00B02FFF303302031CB32FB42FBE2F7F30C4
:100F6A004001B2008030B1000030B0000030AF0064
:100F7A00EF2F40013408803AF90080307902031DCE
:100F8A00C82F013033020318CB2FCC2FD72F0030B4
:100F9A004001B2000030B1000030B0000030AF00B4
:100FAA00A801EF2F40013308F9007908AE00FF309D
:100FBA00AF05FF30B0057F30B1050030B2052E1CF9
:100FCA00E72FE82FEA2FB117EA2F2E36F900790812
:100FDA00B200EF2F2808F9007908B2043208A300FA
:100FEA003108A2003008A1002F08A000FC2F080039
:060FFA00400182315D2A76
:101F400040011B149B1408004E010F0E890C01392F
:101F5000A92F080043018F01223090008D01080055
:101F6000603051018D008F01910106309300900186
:101F700092010800083042019F0090309D002430FB
:101F80009E0044309B009C010800F000C72F4E01CA
:101F90000F1ECB2FCC2FC72FCD2F700842019A00D8
:101FA0000800F0004301901370088C00D72F0F1C1D
:101FB000DA2FDB2FD72FDC2F0C08DE2F0800803123
:101FC00005208F31803133208F318F31B0278F3111
:101FD0008F31AA278F318F31BA278F310800F02F28
:101FE0004E018F1EF42FF52FF02F42019D1CF92F6B
:101FF000FA2FFD2F1D121D16FD2F1908FF2F0800A7
:10200000543465346D3470346534723461347434EE
:0E20100075347234613420342F346E34003451
:020000040001F9
:0A000E00EC3FFE3F9F3FFF1FFF3F46
:00000001FF
