:020000040000FA
:08000000803102288731FD2F39
:100DB0004E010F0E890C0139DD2E080043018F0111
:100DC000223090008D0108004F0196019701980193
:100DD00099019A019B010800603051018D008F013B
:100DE0009101033093009001920108000830420104
:100DF0009F0090309D0024309E0022309B009C017B
:100E00000800F000032F4E010F1E072F082F032F9D
:100E1000092F700842019A0008008631E4268731C4
:100E200087312E2787318631EC2687318631DE26C1
:100E300087318631F626873108001E2F4E018F1E1E
:100E4000222F232F1E2F42019D1C272F282F2B2FAF
:100E50001D121D162B2F19082D2F080040019C0173
:100E60009B01980199019A010F309600E73092009A
:100E7000FF30930097309400FE309500FE307E01E5
:100E8000D9000730CE00FF30C3000730E400E73060
:100E9000B800DA01E501C401B901CF01E601BA01E8
:100EA000C501D001DB01FF30BB00FF30C600FF30C1
:100EB000D100FF30DC000730E70055307D018F00A6
:100EC000AA308F000F100F307E019E007D014B086D
:100ED000C0391738CB001330C50015307E01A30090
:100EE0001630A5000F30A60014307D01C600553025
:100EF0008F00AA308F000F14080087310D2787312B
:100F0000812F0030F6000030F5000030F400003092
:100F1000F3007608031D972F7508031D972F4030A7
:100F200073029C30743B031C962F972F992FB02F80
:100F3000B02F0130F3070030F43D0030F53D0030B4
:100F4000F63D7608031DAF2F7508031DAF2F403007
:100F500073029C30743B031CAE2FAF2F992FB02F20
:100F60000030F6000030F5000030F4000030F300EF
:100F70007608031DC62F7508031DC62F4030730267
:100F80009C30743B031CC52FC62FC82FDF2FDF2FCB
:100F90000130F3070030F43D0030F53D0030F63D00
:100FA0007608031DDE2F7508031DDE2F4030730207
:100FB0009C30743B031CDD2FDE2FC82FDF2F400138
:100FC00001309B068631D8268731003A0319E92F74
:100FD000EA2F812F87311D278731F1007108F20038
:100FE00072088731012787314830873101278731DF
:100FF000812F812F812F80310228400187317D2F61
:10100000563465347234733461346F3420344C3464
:101010006F34723461343A3420342F346E340034F7
:020000040001F9
:0A000E00EC3FFE3F9F3FFF1FFF3F46
:00000001FF
